:040000009DEF3FF041
:107F1100486F6C61204D756E646F00016EAC98AB5B
:107F21008EAC8AAC8AACA298EF3FF09AEF3FF09307
:107F3100EF3FF001C0ADFF1200110EF66E7F0EF79C
:107F41006E000EF86E00EE13F010EE0BF00900F566
:107F5100CFEEFFE550E150FAE10001DFEF3FF0AB7A
:107F61008E948E949CAC9CAC8AAC98AC96AC94AC40
:107F710082AB8EAB9CAB88AB96AB94AB92B89EB800
:107F8100860A0EAF6E1200000E056E000E046ED54D
:107F9100EF3FF004500224D96E05500320DA6EDF62
:107FA100508EEC3FF0044A052A02500310D8A4DC9D
:107FB100EF3FF0DEEF3FF0CAEF3FF01200B0EC3FD1
:107FC100F020EE13F010EE08F00A0EDBCFE3FFE82D
:107FD10006FCE2080E026E000E036EC4EC3FF00DCB
:107FE1000E076EAF0E066EB60EE82EFED7062EFCFD
:0F7FF100D7072EFAD700D0EAEF3FF000EF00F0ED
:020000040020DA
:08000000FFFFFFFFFFFFFFFF00
:020000040030CA
:0E000000000C1F1EFF0185FF0FC00FE00F4018
:00000001FF
